:10000000000002202D5A0100555A0100575A0100E4
:10001000595A01005B5A01005D5A010000000000BE
:100020000000000000000000000000005F5A010016
:10003000615A010000000000635A0100655A010086
:10004000675A0100675A0100CD580100915801001C
:10005000A5580100675A010075490100856001003B
:10006000695401007154010079540100675A01007C
:10007000675A0100675A0100675A0100675A010078
:10008000675A0100675A0100675A0100675A010068
:10009000675A0100675A0100675A0100675A010058
:1000A000675A0100675A0100815401008954010018
:1000B000675A0100675A01000000000000000000BC
:1000C000675A0100675A0100675A0100B9580100D8
:1000D000675A0100675A0100675A0100675A010018
:1000E000F5580100000000000000000000000000C2
:1000F00000000000675A010000000000E158010004
:1001000000000000000000000000000000000000EF
:1001100000000000000000000000000000000000DF
:1001200000000000000000000000000000000000CF
:1001300000000000000000000000000000000000BF
:1001400000000000000000000000000000000000AF
:10015000000000000000000000000000000000009F
:10016000000000000000000000000000000000008F
:10017000000000000000000000000000000000007F
:10018000000000000000000000000000000000006F
:10019000000000000000000000000000000000005F
:1001A000000000000000000000000000000000004F
:1001B000000000000000000000000000000000003F
:1001C000000000000000000000000000000000002F
:1001D000000000000000000000000000000000001F
:1001E000000000000000000000000000000000000F
:1001F00000000000000000000000000000000000FF
:100200007CB0EE877CB0EE87FF00FF00FF00FF00B0
:10021000FF00FF00FF00FF00FF00FF00FF00FF00E6
:10022000FF00FF00FF00FF00FF00FF00FF00FF00D6
:10023000FF00FF00FF00FF002DE9F04F85B00391A4
:100240000778A7F10903042B044607F07F0200F1A9
:100250000100F5D9202AF3D02B2F04BF677804467C
:100260002D2F75D09FED427B8DED007B4FF0000868
:100270004FF000099FB34FF0000C25464FF0000AE5
:10028000DFF8FCB0644619E018F0BCFC80468946F3
:10029000304618F04DFC42464B4618F0FDFA5246E7
:1002A000804689465B46DDE900013CB318F0D4FD89
:1002B000CDE90001A44615F8017F7FB1A7F1300612
:1002C000092E52465B4640464946DDD9CCB92E2F11
:1002D00017D115F8017F0124002FEFD12C4642469B
:1002E0004B46DDE9000118F08DFC80468946039BF2
:1002F000404649461C6005B0BDE8F08F4FF0010C48
:10030000D9E72C46BCF1000F29D042464B46DDE927
:10031000000118F077FC07F0DF07452F804689467B
:10032000E5D10399681C0A2218F09AFA144902468A
:10033000002018F0C7FF02460B464046494618F019
:1003400061FC804689464046494605B0BDE8F08FCD
:100350009FED097B67788DED007B013486E7DFF840
:1003600024904FF000084046494605B0BDE8F08FA4
:10037000000000000000F03F000000000000F0BF9F
:10038000000024400000F87F2DE9F04700231446C8
:1003900000228046894618F0A7FE28B109F10043E3
:1003A00099462D23237001340022002340464946FC
:1003B00018F090FE28B13022002322706370BDE84F
:1003C000F0874046494616F08FFF18F0CBFE73A326
:1003D000D3E9002307464946404618F085FE002829
:1003E0004ED170A3D3E900234046494618F09AFE47
:1003F000002845D10E2F07F1010540F3B980A7F180
:100400000E0632460020624918F05CFF02460B4699
:100410004046494618F020FD00225E4B18F03CFA99
:1004200018F08CFF002DA7F10F0E4FF0010C4DDDE1
:10043000594FDFF87881012245F6F3294FF02E0A53
:10044000494508BF40454FF030030AD3B0EB0800E0
:1004500061EB0901494508BF404503F10103F5D2AD
:10046000DBB2237050EA010304F101084AD195423E
:1004700052DD0132102A4FD0444677E90289DFE786
:10048000002F33DB3A460020414918F01BFF02469B
:100490000B464046494618F0DFFC3BA3D3E9002356
:1004A00080468946012500264046494618F0AAFBA9
:1004B0000022384B18F0F0F918F040FF002DBC4630
:1004C0004FF0FF3E37464FF00006B1DC23463022A6
:1004D0004FF02E0803F8022B84F80180FC4345D02E
:1004E0001C4403F8012BA342FBD1A1E77A42002070
:1004F000274918F0E7FE02460B464046494618F0E9
:1005000081FBCAE7954202F1010204BF84F801A011
:1005100004F10208102AAFD16EB14246302102F830
:10052000011BC2F1010373444344002BF7DC2EEAA4
:10053000EE7301339844BCF1010F12D0BCF1000FEF
:100540004FF0650388F80030C5BF2B2388F80130D1
:1005500008F1010108F102016046BDE8F0470FF023
:1005600053BC002388F80030BDE8F0871C465FE7E5
:10057000C7F10E020020064918F0A4FE3E460246CE
:100580000B46012790E700BF0000901EC4BCD64276
:10059000000024400000E03F389E01008DEDB5A032
:1005A000F7C6B03E50EFE2D6E41A4B4400407A1052
:1005B00070B54FF0FF3006F05BF904466FF07F40F6
:1005C00006F056F90646204618F0A2FA00220C4B17
:1005D00018F018FB044630460D4618F099FA06A3A9
:1005E000D3E9002318F038FC02460B462046294682
:1005F00018F052F970BD00BF0000E0DFFFFF6F434D
:100600000000F03D000000002DE9F04F2DED028BC1
:10061000044683B0C06818F08BFA8046206989468A
:1006200018F086FA824660698B4618F081FA024615
:1006300001F1004306460F464046494616F008FDC4
:1006400018F0D8FDE062054616F0BAFB0190284686
:1006500016F06AFB019B0546184618F07BFA4246E5
:100660004B4618F0CFFA80462846894618F072FAB1
:1006700032463B4618F0C6FA02460B46404649460B
:1006800018F008F902460B465046594616F0E0FCB1
:1006900018F0B0FD002208EE100A0023304639465B
:1006A00018F040FD28B3B5EEC08AF1EE10FA1CDD5B
:1006B00011A7D7E9006718EE100A18F04BFA0246A6
:1006C0000B463046394618F0E5F832463B4618F0FE
:1006D000E3F818F08FFDA062E38843F00203E380A3
:1006E00003B0BDEC028BBDE8F08F05A7D7E900672A
:1006F000E1E784ED0A8AEFE7EA2E4454FB21F93F53
:10070000EA2E4454FB21F9BF08B510F071FEDFED6D
:100710000C7A07EE100A67EE277A17EE900A18F0A7
:1007200019FA05A3D3E9002318F096FB18F01AFD77
:1007300008BD00BFAFF30080EA2E4454FB211940EE
:100740000000B4430000000008B510F065FEDFEDC6
:100750000C7A07EE100A67EE277A17EE900A18F067
:10076000F9F905A3D3E9002318F076FB18F0FAFC99
:1007700008BD00BFAFF30080EA2E4454FB211940AE
:100780000000B44300000000494A21F000439342B6
:100790002DE9704304460D4649DC464A93420E4615
:1007A0000EDC3FA3D3E9002318F076F80022424B79
:1007B00018F0B8FC00284AD020462946BDE87083CE
:1007C0003E4A934239DCB3F1804F40DD16F09AF98E
:1007D0002246804689462B462046294618F012FAC2
:1007E0000022354B18F058F817F028F842464B46CF
:1007F00018F052F802460B4600202F4918F02CFB47
:10080000424604460D464B464046494618F044F8D9
:1008100002460B462046294618F03EF802F040F802
:10082000002E08DC01F100431946BDE87083024642
:100830000B4618F031F8BDE8708316F063F902F04A
:100840002FF819A3D3E9002318F026F8E8E7224689
:100850002B462046294618F0D5F980468946204681
:10086000294616F04FF9002204460D46124B404629
:10087000494618F011F816F0E1FF00220E4B18F06F
:100880000BF802460B464046494618F0E5FA224668
:100890002B4618F001F800F0A7FAC1E7AFF300808B
:1008A0009C7500883CE4377EEF39FAFE422EE63F25
:1008B000FFFFEF7FFFFF2F3E0000F03F0000B04141
:1008C0002DE9F84FBE4B21F000469E4204460D46EE
:1008D0008A460EDDBB4B9E4200F3B18000F0AC8037
:1008E000BAF1000F40F3EA8099A1D1E90001BDE817
:1008F000F88FB54B9E4200F3BA80A3F1DE739E429F
:1009000040F3A5804FF0FF3B22462B462046294668
:1009100018F078F902460B468046894618F072F9BD
:100920008DA3D3E9002306460F4618F06BF98CA37C
:10093000D3E9002317F0B0FF32463B4618F062F9C6
:1009400089A3D3E9002317F0A7FF32463B4618F0EE
:1009500059F987A3D3E9002317F09EFF32463B469F
:1009600018F050F984A3D3E9002317F095FF32461D
:100970003B4618F047F982A3D3E9002317F08CFF18
:1009800042464B4618F03EF97FA3D3E90023804648
:1009900089463046394618F035F97DA3D3E900235E
:1009A00017F078FF32463B4618F02CF97AA3D3E9CA
:1009B000002317F06FFF32463B4618F023F978A367
:1009C000D3E9002317F066FF32463B4618F01AF9C8
:1009D00075A3D3E9002317F05DFF32463B4618F0BC
:1009E00011F902460B464046494617F055FF22468C
:1009F0002B4618F007F9BBF1FF3F02460B4661D0CA
:100A0000724B734E4FEACB0B5B44D3E9002317F0D4
:100A100041FF22462B4617F03DFFB34402460B46EA
:100A2000DBE9000117F036FFBAF1000F0DDA01F132
:100A300000431946BDE8F88F00283FF451AF224625
:100A40002B462046294617F027FFBDE8F88F58A30C
:100A5000D3E9002317F020FF00225E4B18F062FB61
:100A600000283FF44FAF20462946BDE8F88F16F026
:100A700049F8594B9E4204460D4629DCA3F5502304
:100A80009E424EDC02460B4617F006FF0022514BF9
:100A900017F000FF002206460F464FF08043204625
:100AA000294617F0F9FE02460B463046394618F043
:100AB000D3F94FF0000B04460D4625E73EA1D1E9DE
:100AC0000001C2E72046294617F0E4FEBDE8F88F92
:100AD000424B9E421ADC0022414B17F0DBFE002203
:100AE00006460F463E4B2046294618F08BF800225A
:100AF000384B17F0D1FE02460B463046394618F007
:100B0000ABF94FF0020B04460D46FDE602460B46DC
:100B10000020344918F0A0F94FF0030B04460D46AD
:100B2000F2E600222B4B17F0B5FE002206460F46D8
:100B3000284B2046294617F0AFFE02460B463046AA
:100B4000394618F089F94FF0010B04460D46DBE6F3
:100B5000182D4454FB21F93F11DA22E33AAD903FBE
:100B6000EB0D76244B7BA93F513DD0A0660DB13FE4
:100B70006E204CC5CD45B73FFF8300922449C23F4C
:100B80000D5555555555D53F2F6C6A2C44B4A2BF11
:100B90009AFDDE522DDEAD3F6D9A74AFF2B0B33FD9
:100BA000711623FEC671BC3FC4EB98999999C93F51
:100BB0009C7500883CE4377E182D4454FB21F9BF16
:100BC000FFFF0F440000F07FFFFFDB3F609E01004E
:100BD000409E01000000F03FFFFFF23FFF7F034017
:100BE0000000F83F0000F0BF2DE9F041C1F30A57C3
:100BF000A7F2FF35132D02460B460C4688460646E3
:100C000020DC002D4ADB364F2F4101EA070C5CEA5D
:100C1000000C1CD030A3D3E9002317F03DFE0022C6
:100C2000002318F07FFA48B1002C04DD4FF4801344
:100C300043FA05F5A84428EA070400262146304671
:100C4000BDE8F081332D06DDB5F5806F38D0104654
:100C50001946BDE8F081A7F213474FF0FF3C2CFA8C
:100C600007F70742F3D01CA3D3E9002317F014FEC3
:100C70000022002318F056FA0028DFD0002C09DDEE
:100C8000142D22D00123C5F1340503FA05F5AE1960
:100C900028BF984426EA07064446CFE70EA3D3E9C7
:100CA000002317F0F9FD0022002318F03BFA00287A
:100CB000C4D0002C0CDB264305D00026094CBDE730
:100CC00017F0EAFDC5E73446B8E704F10108E1E7AB
:100CD00000264FF00044B1E79C7500883CE4377E65
:100CE000FFFF0F000000F03F2DE9F041C1F30A576C
:100CF000A7F2FF35132D02460B460C4688460646E2
:100D00001DDC002D3CDB364F2F4101EA070C5CEA6D
:100D1000000C19D030A3D3E9002317F0BDFD002249
:100D2000002318F0FFF9C8B3002C04DA4FF4801345
:100D300043FA05F5A84428EA070400262EE0332DDF
:100D400006DDB5F5806F2DD010461946BDE8F0815F
:100D5000A7F213474FF0FF3C2CFA07F70742F3D0F6
:100D60001DA3D3E9002317F097FD0022002318F0FC
:100D7000D9F998B1002C21DB26EA070644460DE09C
:100D800015A3D3E9002317F087FD0022002318F0F4
:100D9000C9F918B1002C08DB00263446214630463C
:100DA000BDE8F08117F078FDD0E724F000430D4A4C
:100DB0001E43002E18BF14460026EFE7142D08D05E
:100DC0000123C5F1340503FA05F5AE1928BF98448F
:100DD000D2E704F10108CFE79C7500883CE4377E38
:100DE000FFFF0F000000F0BF2DE9F04FD84B9942F4
:100DF00087B08046894643DDD64B99420E4600F3C4
:100E0000F480D54B994240F32D819FEDBB7B8DED56
:100E1000047B4FEA215A0446AAF2FF3ACF4BC6F3AD
:100E200013069E4246F07F5500F3128145F44015AB
:100E3000204629460022CA4B17F02CFD002204460A
:100E40000D46C84B17F0DEFE22462B4617F0DAFEA1
:100E5000A046CDE90201A946CDE90001002E3AD114
:100E6000002200232046294618F034F9002800F01B
:100E70001B81BAF1000F40F0858100200021B8E00D
:100E8000B94B21F000449C420A460FDD0022B74BCB
:100E900018F020F9002800F0AF8000220023002085
:100EA000B34917F0D9FF07B0BDE8F08FB14B9C42B2
:100EB00040F3AF80B04B1A449A4240F2D3800022F4
:100EC000A84B17F09FFE42464B4617F09BFECDE91C
:100ED00000014FF0000A00224FF08043404649468F
:100EE00017F0DAFC02460B464046494617F0B4FFBD
:100EF00002460B4606460F4617F084FE80A3D3E950
:100F0000002304460D4617F07DFE7FA3D3E900239E
:100F100017F0C2FC22462B4617F074FE7CA3D3E9DF
:100F2000002317F0B9FC22462B4617F06BFE7AA37C
:100F3000D3E9002317F0B0FC22462B4617F062FEDF
:100F400077A3D3E9002317F0A7FC22462B4617F01E
:100F500059FE75A3D3E9002317F09EFC22462B46C9
:100F600017F050FE72A3D3E9002317F095FC224638
:100F70002B4617F047FEDDE9002317F08DFC3246C3
:100F80003B4617F03FFE04460D46BAF1000F00F055
:100F9000A880504617F0CCFD67A3D3E90023824612
:100FA0008B4617F02FFE66A3D3E9002306460F46B3
:100FB0005046594617F026FEDDE9042317F06CFC75
:100FC00022462B4617F068FC02460B46DDE900017D
:100FD00017F060FC42464B4617F05CFC02460B469D
:100FE0003046394617F056FC03E002460B4617F030
:100FF00053FC07B0BDE8F08F42464B464046494699
:1010000017F048FC02460B4617F026FF07B0BDE874
:10101000F08F0022594B17F03FFC0022002318F0FC
:1010200081F810B1564B9C4262DD42464B46404629
:10103000494617F0E7FD00224A4B17F0E3FD024650
:101040000B464046494617F025FC07B0BDE8F08F37
:1010500045F40015C6F5801620462946B6100AF15B
:10106000010AE7E600223E4B4046494617F014FCD1
:101070004FEA215AAAF2FF3ABAF1000F04460D4690
:101080000E4640F3BD8042464B4617F003FC024635
:101090000B460020324917F0FDFB22462B4617F085
:1010A000DBFECDE90401B9E627A3D3E900232046FE
:1010B000294617F0A7FD02460B460020284917F0E5
:1010C000E9FBDDE9022317F09DFD06460F46BAF164
:1010D000000F75D102460B462046294617F0DAFB71
:1010E00087E702460B46DDE9000117F0D3FBA6E7D0
:1010F000404649467DE700BF0000000000000000B8
:1011000044523EDF12F1C23F9FC678D0099AC33FD6
:10111000DE03CB966446C73FAF788E1DC571CC3FCA
:10112000599322942449D23F04FA97999999D93F27
:10113000935555555555E53F0000E0FE422EE63FDC
:10114000763C7935EF39EA3D555555555555E53FCE
:101150007982DA3FFFFFEF7FFFFF3F439DA006004C
:101160000000F03F0000E03FFFFFEF3F0000F0BF56
:10117000000050C3FFFF1F3E3C412D400000504384
:10118000FFFF8F3C504617F0D3FC24A3D3E9002384
:1011900006460F4617F036FDDDE9042317F07CFB09
:1011A00020A3D3E9002304460D463046394617F004
:1011B00029FD02460B462046294617F06DFB18E72D
:1011C000504617F0B5FC17A3D3E9002382468B469F
:1011D00017F018FD11A3D3E9002380468946504635
:1011E000594617F00FFDDDE9042317F055FB0246C1
:1011F0000B463046394617F04DFB22462B4674E726
:101200000022054B17F046FB02460B464046494676
:1012100017F040FB41E700BF0000F03F763C793516
:10122000EF39EA3D0000E0FE422EE63F00000000FC
:1012300008B515F0DBFF04A3D3E9002317F00CFE7B
:1012400008BD00BFAFF30080EF39FAFE422EE63F43
:101250002DE9F043DFF8B4808BB004460D4601F071
:10126000F7F898F90030013306460F462CD0224695
:101270002B462046294617F05FFF814620BB2046BB
:10128000294615F03FFC1FA3D3E9002317F04AFFBE
:10129000D0B1194A98F90030CDF820900321CDE95A
:1012A0000445CDE90245CDE9001293B11349002070
:1012B000022BCDE9060111D117F07AFA222303603F
:1012C000089B9BB9DDE90667304639460BB0BDE89F
:1012D000F0830B4B4FF06042CDE90623684617F0D0
:1012E000E3F80028E8D0089B002BEBD017F060FA59
:1012F000089B0360E6E700BFCCB001000000F07F70
:10130000FFFFEF477DF8B98FCE338640FB01002009
:101310002DE9F043DFF8E4808BB004460D4601F080
:1013200047F998F90030013306460F4633D020467E
:10133000294617F0B3F870B32CA3D3E90023204655
:10134000294617F0EFFE814650BB2AA3D3E90023BC
:101350002046294617F0C8FEE8B198F90030204A27
:10136000CDF82090002000210426022BCDE9044571
:10137000CDE902450096CDE90601019229D06846E3
:1013800017F092F828B3089B1BB117F011FA089BCD
:101390000360DDE90667304639460BB0BDE8F083EF
:1013A0000F4A98F90030019203210022CDE904454B
:1013B000CDE90245009108922BB90A4B4FF06042EB
:1013C000CDE90623DBE708490020022BCDE9060121
:1013D000D5D117F0EDF922230360D4E7AFF30080F5
:1013E000D4B00100FFFFEF470000F07FEF39FAFEB5
:1013F000422E864051302DD5104987C0FB01002078
:101400002DE9F04FDFF82C938DB006460F461446B9
:101410001D4601F09DFC99F90080B8F1FF3FCDE930
:10142000000136D022462B462046294617F084FE7E
:10143000834670BB32463B463046394617F07CFE49
:101440008246002840F0A280304639460022002320
:1014500017F040FE10B3002200232046294617F063
:1014600039FE8346002867D09FEDA77B0122AC4B55
:10147000CDF828A00292CDE90467CDE906458DEDAF
:10148000087B0393B8F1000F41D09FEDA17B8DED58
:10149000007BDDE900010DB0BDE8F08FDDE9000162
:1014A00016F0FCFF8046002800F08D804FF0000A07
:1014B0004FF0000BDDE9000152465B4617F00AFED3
:1014C0000028E6D03046394616F0E8FF0028E0D084
:1014D0002046294616F0E2FF0028DAD099F90030BC
:1014E0008F4A039204210022022BCDE90467CDE943
:1014F0000645CDE908AB02910A9203D002A816F086
:10150000D3FF50B917F054F92223036005E002A875
:1015100016F0CAFF002800F09B800A9B1BB117F051
:1015200047F90A9B03609DED087B8DED007BDDE9AB
:1015300000010DB0BDE8F08F2046294616F0AEFF41
:101540000028A6D0002200232046294617F0CCFD13
:1015500000289ED0724A99F90030CDF828B00121B8
:10156000CDE90467CDE90645CDE90212002B74D020
:101570006C490020022BCDE9080172D117F018F94F
:10158000212303600A9B002BCDD0C8E70022002353
:101590002046294617F09EFD00283FF47AAF624BA3
:1015A0005F49CDF828B000220120B8F1020FCDE943
:1015B00004670290CDE90645CDE908230391A6D141
:1015C000CDE9002365E73046394616F067FF00286D
:1015D0003FF46CAF2046294616F060FF00283FF428
:1015E00065AFDDE900231046194617F0A5FD99F90E
:1015F00000A000286BD10323DFF824C10A902946FC
:10160000204602930022494BCDF80CC0CDE9064597
:10161000CDE9046717F0F6FA04460D46BAF1000F5B
:1016200025D1DFF814B14FF0604A00220023304684
:101630003946CDE908AB17F057FD38BB02A816F0C4
:1016400033FF00289ED117F0B3F82223036099E7F7
:1016500017F0AEF8212303605FE79FED2B7B8DED44
:10166000087B02A816F020FF00288BD186E79FEDAB
:101670002A7B00220023304639468DED087B17F087
:1016800033FDA0B9BAF1020FDDD0D7E720462946D5
:1016900016F012FF22462B4617F01CFDA0B9244B72
:1016A00099F900A04FF06042CDE90823EAE720460F
:1016B000294616F001FF22462B4617F00BFD18B9FC
:1016C000184B0022CDE9082399F900A0DAE701229E
:1016D000134BCDF828800292CDE90467CDE9064589
:1016E0000393BAF1000FB8D0002200231046194628
:1016F00017F0B2FBBAF1020FCDE908013FF43EAF9B
:10170000AFE700BFAFF30080000000000000000062
:10171000000000000000F03F000000000000F07F2B
:10172000ECB001000000F0FF0000F03F0000E03FDF
:10173000FFFFEFC7FB010020FFFFEF4700000000A5
:101740002DE9F84FC44E21F00043B34204460D4644
:101750000DDD03F1404303F58013034340F0B980EE
:10176000002940F3408100200021BDE8F88FBB4EE6
:10177000B34208DCBA4A934200F3B5809CA1D1E998
:101780000001BDE8F88F0029C0F2708102460B46C7
:101790000020B44917F07EF80022B34B17F032FA5C
:1017A00004460D4616F04AF893A3D3E90023894670
:1017B00080462946204617F025FA91A3D3E9002355
:1017C00017F06AF822462B4617F01CFA8EA3D3E9CD
:1017D000002317F05FF822462B4617F013FA8CA36C
:1017E000D3E9002317F058F822462B4617F00AFADF
:1017F00089A3D3E9002317F04DF822462B4617F0B2
:1018000001FA87A3D3E9002317F046F822462B46B6
:1018100017F0F8F984A3D3E9002382468B462046CB
:10182000294617F0EFF982A3D3E9002317F032F825
:1018300022462B4617F0E6F97FA3D3E9002317F0E1
:101840002BF822462B4617F0DDF97DA3D3E90023C0
:1018500017F020F822462B4617F0D4F90022814BCE
:1018600017F01AF802460B465046594617F0F4FA9C
:1018700042464B4617F0C6F9002682468B46324652
:101880004B463046494617F0BDF902460B46204606
:10189000294616F0FFFF324604460D464B464046A9
:1018A000494616F0F9FF02460B462046294617F036
:1018B000D3FA02460B465046594616F0EDFF324623
:1018C0004B4616F0E9FF02460B4616F0E5FFBDE871
:1018D000F88F02460B4616F0DDFF02460B4617F066
:1018E000BBFABDE8F88F02460B4617F08BF942A30E
:1018F000D3E9002306460F4617F084F940A3D3E945
:10190000002316F0C9FF32463B4617F07BF93EA391
:10191000D3E9002316F0BEFF32463B4617F072F9BA
:101920003BA3D3E9002316F0B7FF32463B4617F03E
:1019300069F939A3D3E9002316F0ACFF32463B46E0
:1019400017F060F936A3D3E9002316F0A5FF32465D
:101950003B4617F057F934A3D3E900238046894664
:101960003046394617F04EF931A3D3E9002316F07B
:1019700091FF32463B4617F045F92FA3D3E90023E8
:1019800016F08AFF32463B4617F03CF92CA3D3E908
:10199000002316F07FFF32463B4617F033F9002252
:1019A000304B16F079FF02460B464046494617F089
:1019B00053FA22462B4617F025F902460B4622A180
:1019C000D1E9000116F066FF02460B462046294683
:1019D00016F060FF02460B4605A1D1E9000116F0A2
:1019E00059FFBDE8F88F1AA1D1E9000179E700BFDE
:1019F000182D4454FB21F93F09F7FD0DE13D023F4D
:101A000088B20175E0EF493F3B8F68B52882A43F5B
:101A10005544880E55C1C93F7D6FEB0312D6D43FA4
:101A2000555555555555C53F82922EB1C5B8B33F52
:101A300059018D1B6C06E63FC88A599CE52A004077
:101A40004B2D8A1C273A0340075C143326A6913C91
:101A5000182D4454FB210940FFFFEF3FFFFFDF3FFC
:101A60000000603C0000F03F0000E03F00225C4BC3
:101A700016F012FF00225B4B17F0C4F840A3D3E925
:101A8000002304460D4617F0BDF83FA3D3E9002319
:101A900016F002FF22462B4617F0B4F83CA3D3E918
:101AA000002316F0F7FE22462B4617F0ABF83AA3B8
:101AB000D3E9002316F0F0FE22462B4617F0A2F8D9
:101AC00037A3D3E9002316F0E5FE22462B4617F094
:101AD00099F835A3D3E9002316F0DEFE22462B4603
:101AE00017F090F8804689462046294615F0A6FE54
:101AF0002FA3D3E9002306460F462046294617F0B8
:101B000081F82DA3D3E9002316F0C4FE22462B460C
:101B100017F078F82AA3D3E9002316F0BDFE224679
:101B20002B4617F06FF828A3D3E9002316F0B2FE76
:101B300022462B4617F066F80022294B16F0ACFE21
:101B400002460B464046494617F086F932463B4668
:101B500017F058F81EA3D3E9002316F09BFE324677
:101B60003B4616F099FE02460B4616F095FE0246DD
:101B70000B4619A1D1E9000116F08CFEB1E600BFB9
:101B800009F7FD0DE13D023F88B20175E0EF493FE5
:101B90003B8F68B52882A43F5544880E55C1C93F84
:101BA0007D6FEB0312D6D43F555555555555C53F5E
:101BB00082922EB1C5B8B33F59018D1B6C06E63F2A
:101BC000C88A599CE52A00404B2D8A1C273A0340BD
:101BD000075C143326A6913C182D4454FB21094080
:101BE0000000F03F0000E03F414A91422DE9F843F8
:101BF00004460D4637DD3F4A91420B4608DD02F1AF
:101C0000795291423DDD024616F046FEBDE8F8836A
:101C100001F1404202F5801202432ED0B1F1804F13
:101C200037DC0022344B16F035FE02460B460446E4
:101C30000D4616F031FE224606460F462B4620463C
:101C4000294616F0DFFF02460B463046394616F0AD
:101C500023FE15F0F3FD22462B4616F01DFEBDE8CF
:101C6000F843FFF7C1B802460B4616F013FE0246D2
:101C70000B4617F0F1F8BDE8F88300200021BDE81D
:101C8000F88300F00DFE18A3D3E9002316F004FE3C
:101C9000F1E7024616F0B6FF0022174B16F0FAFDE8
:101CA00015F0CCFD2246804689462B462046294623
:101CB00016F0F2FD224606460F462B4640464946A0
:101CC00016F0EAFD02460B4600200B4917F0C4F857
:101CD0000B4602463946304616F0DCFDBDE8F843B7
:101CE00000F0DEBDAFF30080EF39FAFE422EE63F92
:101CF000FFFFEF3FFFFFAF410000F03F000000009B
:101D00002DE9F04FAE4B21F000479F4287B00446CB
:101D10000D4611DD07F1404707F5801703463B43A9
:101D200021D002460B4616F0B5FD02460B4617F0D1
:101D300093F807B0BDE8F08FA24B9F420E4629DC16
:101D4000B7F1795F80F2468181A3D3E9002316F0D1
:101D5000A3FD00229C4B17F0E5F9D8B12046294697
:101D600007B0BDE8F08F7CA3D3E9002316F04AFF4B
:101D70007BA3D3E9002306460F462046294616F0EA
:101D800041FF02460B463046394616F085FD07B046
:101D9000BDE8F08F2046294614F0B4FE02460B46FB
:101DA0000020894916F076FD0022884B16F02AFFA4
:101DB0006DA3D3E9002304460D4616F023FF6CA360
:101DC000D3E9002316F068FD22462B4616F01AFFD1
:101DD00069A3D3E9002316F05DFD22462B4616F0D9
:101DE00011FF67A3D3E9002316F056FD22462B46C8
:101DF00016F008FF64A3D3E9002316F04BFD22463A
:101E00002B4616F0FFFE62A3D3E9002316F044FD33
:101E100022462B4616F0F6FE5FA3D3E90023CDE958
:101E200000012046294616F0EDFE5DA3D3E900230C
:101E300016F030FD22462B4616F0E4FE5AA3D3E9F5
:101E4000002316F029FD22462B4616F0DBFE58A390
:101E5000D3E9002316F01EFD22462B4616F0D2FED3
:101E6000594B002216F018FD82468B462046294623
:101E7000CDE902AB15F0E2FC554B9F428046894606
:101E800000F3198102460B4616F006FDDDE9022338
:101E9000CDE90401DDE9000116F0DEFF02460B4644
:101EA000DDE9040116F0AEFE4FF0000ACDE90001B5
:101EB00052464B465046494616F0A4FE02460B4693
:101EC0002046294616F0E6FC524604460D464B468F
:101ED0004046494616F0E0FC02460B46204629469D
:101EE00016F0BAFF02460B4616F0D6FC02460B4629
:101EF0001BA1D1E9000116F0CDFC02460B46DDE93D
:101F0000000116F0C7FC524604460D464B465046AB
:101F1000494616F0C1FC02460B4627A1D1E9000153
:101F200016F0B8FC02460B462046294616F0B2FCD5
:101F300002460B4620A1D1E9000116F0ABFC002EB1
:101F40003FF7F7AE01F100431946F2E6AFF3008028
:101F50009C7500883CE4377E182D4454FB21F93FE2
:101F6000075C143326A6913C09F7FD0DE13D023FC5
:101F700088B20175E0EF493F3B8F68B52882A43FE6
:101F80005544880E55C1C93F7D6FEB0312D6D43F2F
:101F9000555555555555C53F82922EB1C5B8B33FDD
:101FA00059018D1B6C06E63FC88A599CE52A004002
:101FB0004B2D8A1C273A0340182D4454FB21E93F3E
:101FC000FFFFEF3FFFFFDF3F0000F03F0000E03F7B
:101FD0003233EF3F02460B4616F014FE4BA3D3E913
:101FE000002306460F4616F00DFE4AA3D3E9002350
:101FF00016F052FC32463B4616F004FE47A3D3E9E6
:10200000002316F047FC32463B4616F0FBFD45A385
:10201000D3E9002316F040FC32463B4616F0F2FDB1
:1020200042A3D3E9002316F035FC32463B4616F0B6
:10203000E9FD40A3D3E9002316F02EFC32463B46CF
:1020400016F0E0FD3DA3D3E90023804689463046E3
:10205000394616F0D7FD3BA3D3E9002316F01AFC4E
:1020600032463B4616F0CEFD38A3D3E9002316F0E6
:1020700013FC32463B4616F0C5FD36A3D3E90023D8
:1020800016F008FC32463B4616F0BCFD00221E4B03
:1020900016F002FC02460B464046494616F0DCFEAE
:1020A00022462B4616F0AEFD22462B4616F0F4FBD8
:1020B00007B0BDE8F08F52465B46DDE9000116F03F
:1020C000CBFE42464B4616F09DFD42464B4616F06F
:1020D000E3FB02460B4616F0DFFB07A3D3E9002320
:1020E00016F0D8FB02460B4605A1D1E9000116F017
:1020F000D1FB24E7AFF30080075C143326A6913CA4
:10210000182D4454FB21F93F0000F03F09F7FD0D65
:10211000E13D023F88B20175E0EF493F3B8F68B572
:102120002882A43F5544880E55C1C93F7D6FEB03FB
:1021300012D6D43F555555555555C53F82922EB1AF
:10214000C5B8B33F59018D1B6C06E63FC88A599C40
:10215000E52A00404B2D8A1C273A0340000000006E
:102160002DE9F84F1D465342134325F00049DFF88F
:10217000C8C149EAD3736345144606460F4626D8BC
:10218000C0F1000848EA000821F0004A4AEAD8787D
:10219000E04503468B461AD805F1404808F58018FB
:1021A00058EA0208AE4643D04FEAA57808F0020884
:1021B0005AEA030348EAD17811D1B8F1020F55D099
:1021C000B8F1030F09D14AA1D1E9000105E0324677
:1021D0003B462046294616F05FFBBDE8F88F59EADA
:1021E000020329D0E1452ED0E24525D0AAEB09090A
:1021F0004FEA2959B9F13C0F3CDC002D3EDA19F1C8
:102200003C0F3BDA00200021B8F1010F4ED0B8F1AD
:10221000020F3ED0B8F1000FDFD037A3D3E900237F
:1022200016F038FB36A3D3E9002316F033FBD4E7CE
:10223000BDE8F84FFEF744BBBBF1000F12DB32A143
:10224000D1E90001C9E7CA4534D0B8F1020F0DD079
:10225000B8F1030FB7D0B8F1010F4FF0000036D03E
:102260000021BAE72AA1D1E90001B6E724A1D1E90A
:102270000001B2E724A1D1E90001C5E722462B46BF
:102280003046394616F0E8FD14F03CFCFEF718FB2A
:10229000BAE719A3D3E9002316F0FCFA02460B466D
:1022A00017A1D1E9000116F0F5FA96E701F1004314
:1022B000194692E7B8F1020F14D0B8F1030F0DD010
:1022C000B8F1010F06D014A1D1E9000185E74FF064
:1022D000004182E712A1D1E900017EE712A1D1E914
:1022E00000017AE712A1D1E9000176E7AFF300809F
:1022F000182D4454FB2109C0075C143326A6A13CC9
:10230000182D4454FB210940182D4454FB21F93F5A
:10231000182D4454FB21F9BF182D4454FB21E93FEB
:10232000182D4454FB21E9BFD221337F7CD902C050
:10233000D221337F7CD902400000F07F00000000F2
:1023400043422DE9F047034321F000463C4A46EA68
:10235000D373934204460D462AD8964240D0394B57
:102360009E428A462EDD384B9E4235463FDD33463F
:102370000246314616F090FA224606460F462B4694
:1023800000202F4916F086FA02460B4630463946A1
:1023900016F062FDFEF728FD00222C4B16F032FCF1
:1023A000BAF1000F0CDA01F100431946BDE8F087DD
:1023B00002460B4616F06EFA02460B4616F04CFD2E
:1023C000BDE8F0871CA3D3E9002316F065FA0022CC
:1023D000002316F0A7FE48B120462946BDE8F08745
:1023E0000022002316F038FDBDE8F087354622466E
:1023F0002B462046294616F04FFA22462B46064623
:102400000F4616F0FFFB2246804689462B460020E9
:102410000B4916F03FFA02460B464046494616F075
:102420001BFD32463B4616F037FAFEF7DDFC002274
:10243000064B16F0E7FBB3E79C7500883CE4377E5B
:102440000000F03FFFFF2F3EFFFFDF3F0000E03FB7
:102450002DE9F8434E4B21F000449C4206460F46BE
:102460001BDC4C4B9C4222DD4B4B9C4254DD4B4BC6
:102470009C4246DD4A4B9C426FDD01339C4269D051
:1024800041A3D3E900231046194616F0BBFB0646CC
:102490000F4630463946BDE8F88302460B4616F033
:1024A000B1FB06460F4630463946BDE8F88314F0C6
:1024B00029FB02F04DFC00223A4B8046894616F07B
:1024C000EBF9B4F1725F06460F46ECDB42464B4631
:1024D0004046494616F096FB32463B4604460D46BA
:1024E0003046394616F0D8F902460B4620462946B2
:1024F00016F0B2FC00222B4B16F0CEF906460F4622
:10250000D1E714F0FFFA00F053F80022264B16F042
:1025100079FB06460F46C6E714F0F4FA00F048F8D7
:102520000022214B06460F4616F06CFB324604464D
:102530000D463B4600201C4916F08EFC02460B4619
:102540002046294616F0A8F906460F463046394679
:10255000BDE8F883154B984292D83046394614F0BE
:10256000D1FA0022104B16F04DFB00F021F80022AA
:1025700004460D460C4B16F045FB22462B4616F042
:1025800041FB06460F468EE79C7500883CE4377E8B
:10259000FFFFEF7F422ED63FFFFF3540412E8640A2
:1025A000CD3386400000F03F0000E03F7DF8B98F5A
:1025B0002DE9F047B04F21F00042BA4284B0044602
:1025C0000D464FEAD17610D9AC4FBA4240F28A801C
:1025D000C1F313030343024640F0F180002E7ED086
:1025E0000020002104B0BDE8F087A54B9A4200F21C
:1025F000B680A44B9A4240F2D1804FF0000A2246A6
:102600002B462046294616F0FDFA85A3D3E9002380
:1026100006460F4616F0F6FA83A3D3E9002316F018
:1026200039F932463B4616F0EDFA81A3D3E900238F
:1026300016F032F932463B4616F0E4FA7EA3D3E9AF
:10264000002316F027F932463B4616F0DBFA7CA34E
:10265000D3E9002316F020F932463B4616F0D2FAB1
:1026600002460B462046294616F014F902460B4650
:1026700006460F462046294616F0C4FA804689468B
:10268000BAF1000F00F0AB8032463B4600204FF01D
:10269000804116F0FFF802460B464046494616F0C8
:1026A000DBFB02460B46DDE9020116F0F3F8DDE93B
:1026B000002316F0EFF80B4602467349002016F08F
:1026C000E9F86FF47F739A4580F2A3800AF57A7A6D
:1026D00001EB0A5100224FF0B87316F093FA04B0E0
:1026E000BDE8F08758A3D3E9002316F01BFD0028AE
:1026F0006BD157A3D3E900232046294616F0F4FCFA
:1027000000287FF46DAF614953A3D3E9002301EBA7
:10271000C6062046294616F075FAD6E9002316F0BB
:10272000BBF816F01FFD824616F002FA4CA3D3E95F
:10273000002306460F4616F065FA02460B46204671
:10274000294616F0A7F848A3D3E90023CDE90001F4
:102750003046394616F056FACDE9020115E04C4BE9
:102760009A42D0D84B4BF4002344D3E9002316F00F
:1027700091F8494B234493ED007BCDE900018DEDA9
:10278000027BC6F1010AAAEB060ADDE90223DDE9B4
:10279000000116F07FF804460D4630E734A3D3E974
:1027A000002316F079F80022374B16F0BBFCA8B3D3
:1027B000204629460022344B16F06EF88FE70B4670
:1027C00016F06AF804B0BDE8F08729A3D3E9002326
:1027D0001046194616F016FA04B0BDE8F0873046E8
:1027E000394600224FF0804316F054F802460B465B
:1027F0004046494616F030FB22462B4616F04AF872
:1028000002460B460020204916F044F804B0BDE80B
:10281000F08701EB0A5104B0BDE8F0878246EEE68E
:10282000D0A4BE726937663EF16BD2C541BDBB3ED6
:102830002CDE25AF6A56113F93BDBE166CC1663FB4
:102840003E5555555555C53FEF39FAFE422E864047
:1028500051302DD5104987C0FE822B654715F73FB3
:102860000000E0FE422EE63F763C7935EF39EA3D46
:102870009C7500883CE4377E412E8640FFFFEF7F49
:10288000422ED63FFFFF2F3E0000F03F809E01000A
:10289000B1A2F03F909E0100A09E01000000000048
:1028A0002DE9F04FB1F5801F85B006460F460B4667
:1028B00080F2D08021F00042024300F0DA8000294B
:1028C000C0F2E9800022D64B16F09CF9D54A0B469F
:1028D000934206460F466FF0350E00F3C180C3F3F6
:1028E000130505F5152C0CF6647C0CF4801C8CF09B
:1028F0007F5282F440121C1542EA0507A4F2FF340D
:1029000074440022C84B3046394604EB1C5415F081
:10291000C1FFAB1CC3F31303022B82468B464FF05F
:10292000000240F3AF804FF0804315F0B5FF024640
:102930000B465046594616F08FFA064620460F467B
:1029400016F0F6F83246CDE902013B4630463946EC
:10295000CDE9006716F056F902460B4680468946D7
:1029600016F050F99AA3D3E9002306460F4616F055
:1029700049F999A3D3E9002315F08EFF32463B466F
:1029800016F040F996A3D3E9002315F085FF3246EF
:102990003B4616F037F994A3D3E9002315F07CFFEA
:1029A00042464B4616F02EF991A3D3E90023804608
:1029B00089463046394616F025F98FA3D3E900231E
:1029C00015F06AFF32463B4616F01CF98CA3D3E99A
:1029D000002315F061FF32463B4616F013F90B4613
:1029E00002464946404615F057FFA5F5C223C5F5F6
:1029F000D725A3F27A4351351D43002D06460F46D5
:102A000040F387800022894B5046594616F0FAF869
:102A100052465B4616F0F6F802460B46804689465B
:102A20003046394615F038FFDDE9002316F0EAF8A4
:102A300006460F46002C40F0818002460B46404679
:102A4000494615F027FF02460B465046594615F0F9
:102A500021FF0BE0734A93424FF0000E7FF73FAF28
:102A600032463B463046394615F016FF05B0BDE804
:102A7000F08F0022002300206D4916F0EDF905B01B
:102A8000BDE8F08F002316F025FB60B1002C7CD14F
:102A900000200021EAE7024615F0FCFE0022002398
:102AA00016F0DAF9E2E758A3D3E900235046594675
:102AB00016F0A8F802460B4600205C4915F0EAFE25
:102AC000524606460F465B465046594616F09AF85F
:102AD00002460B463046394616F094F806460F4635
:102AE0002CB3204616F024F849A3D3E900238046EE
:102AF000894616F087F848A3D3E9002304460D461B
:102B00004046494616F07EF802460B4630463946A6
:102B10002CE002460B465046594615F0BBFEDDE957
:102B2000002316F06FF806460F46002C47D13246B8
:102B30003B465046594615F0ADFE97E734A3D3E91E
:102B40000023DDE9020116F05DF833A3D3E9002389
:102B500004460D46DDE9020116F054F832463B46C4
:102B600015F09AFE02460B464046494615F092FE85
:102B700052465B4615F08EFE02460B46204629461D
:102B800015F088FE05B0BDE8F08F204615F0D0FFA7
:102B90001FA3D3E9002306460F4616F033F81EA301
:102BA000D3E9002304460D463046394616F02AF88C
:102BB00002460B462046294615F06EFE56E7DDE933
:102BC000028913A3D3E900234046494691E700BF99
:102BD00044523EDF12F1C23FDE03CB966446C73F4C
:102BE000599322942449D23F935555555555E53F65
:102BF0009FC678D0099AC33FAF788E1DC571CC3F70
:102C000004FA97999999D93F555555555555D53F3A
:102C10000000E0FE422EE63F763C7935EF39EA3D92
:102C200000005043FFFFEF7F0000F03F0000E03F57
:102C3000000050C300000000B1F5801F2DE9F843EB
:102C400004460D460B4619DA21F00042024359D0E2
:102C500000295FDB00223A4B15F0D4FF394A0D46BC
:102C60002B46934204466FF035010CDD22462B467D
:102C70002046294615F010FEBDE8F883314A9342FC
:102C80004FF00001F2DC1815A0F2FF3008444FEAC3
:102C9000D0794844C3F3130815F04AFFC9F57F7390
:102CA000033348EA035506460F4620462946FFF7F8
:102CB000F7FD1DA3D3E900238046894630463946F7
:102CC00015F0A0FF1AA3D3E9002304460D464046A1
:102CD000494615F097FF02460B462046294615F057
:102CE000DBFD15A3D3E9002304460D4630463946E3
:102CF00015F088FF02460B462046294615F0CCFD0C
:102D0000BDE8F8830022002300200F4916F0A4F844
:102D1000BDE8F883024615F0BDFD0022002316F041
:102D20009BF8A9E7AFF30080362BF111F3FE593D74
:102D30000EE526157BCBDB3F00609F501344D33F4D
:102D400000005043FFFFEF7F000050C30000000071
:102D50002DE9F04F23F0004555EA020493B00DD061
:102D60006B4E21F00044B4420F4682460BDD04F165
:102D7000404404F5801454EA0A0350D16549002008
:102D800013B0BDE8F08F9B46944647D0B542EEDCC9
:102D90005F4EB5425DD0002F80468946CDE90023C5
:102DA0005BDB0026BCF1000F0ED1594B9D423FD09A
:102DB000584B9D4200F08880BBF1804F00F09C8012
:102DC000554B9B4500F0B8834046494613F09AFEA8
:102DD000BAF1000F06D1002C59D04E4B27F04042DB
:102DE0009A4254D0FF0F013F56EA070373D04B4B72
:102DF0009D4240F39B8003F104739D4240F33E8467
:102E0000474B9C4272DDBBF1000F72DD3EA3D3E95C
:102E100000231046194615F0F5FEB1E728B14148E8
:102E200013B0BDE8F04F15F041BBA542F7DCAFE7AA
:102E300004F1404303F5801353EA0A039ED0384B54
:102E40009C4240F38383BBF1000F52DBDDE90001BC
:102E500096E7BCF1000F9ED089E7334B9D4231DCF1
:102E6000A3F154739D429CDD2B15A3F2FF33142B69
:102E700040F3A583C3F134032CFA03F202FA03F3FF
:102E800063458ED102F00102C2F102068AE7BBF16E
:102E9000000F05DA02460B4600201E4915F0DCFF44
:102EA000002FBFF66DAF04F1404404F5801454EADE
:102EB000060300F03F84012E7FF462AF01F100436E
:102EC00019465DE702266DE7BBF1000FC0F24883AB
:102ED0004046494654E742464B461046194615F0CF
:102EE000D9FC02460B4615F0B7FF49E7BBF1000FCE
:102EF0008CDB0020002143E742464B4640464946D2
:102F000015F080FE3CE700BF9C7500883CE4377EEE
:102F10000000F07F0000F03F0000E03F0000E041D3
:102F2000FFFFEF3FCCA60100FFFF3F43B4F5801F3A
:102F300080F261830022D24B15F064FE6FF0340CF6
:102F40000C462315CF4DC4F31302A3F2FF3342F016
:102F50007F546344AA420B9344F4401440F33F83EC
:102F6000C94B9A4240F304849FEDAF7B8DED087B03
:102F70008DED107B9FEDAE7B0B9B8DED067B0133C2
:102F80000B93A4F580140025DDE906232146824633
:102F900015F080FCA346DDE90623804689465046AD
:102FA0002146CDE90CAB15F077FC02460B4600201C
:102FB000B64915F051FF0A460146CDE90E121346F7
:102FC00049460246404615F01DFE631043F000538B
:102FD00082468B4603F500238C46CDE904AB591994
:102FE000D3460023CDE902BC0293DDE902AB002009
:102FF00004460D4602460B465046594615F002FE61
:1030000002460B464046494615F044FCDDE90623DE
:10301000804689462046294615F03CFC02460B4670
:10302000DDE90C0115F036FC52465B4615F0EAFD71
:1030300002460B464046494615F02CFCDDE90E23BE
:1030400015F0E0FDDDE90445CDE9060122462B46F9
:103050002046294615F0D6FD77A3D3E90023044680
:103060000D4615F0CFFD76A3D3E9002315F014FC2F
:1030700022462B4615F0C6FD73A3D3E9002315F0B5
:103080000BFC22462B4615F0BDFD71A3D3E90023AE
:1030900015F002FC22462B4615F0B4FD6EA3D3E9D1
:1030A000002315F0F9FB22462B4615F0ABFD6CA36F
:1030B000D3E9002315F0F0FB2246804689462B46D3
:1030C0002046294615F09EFD02460B4640464946DD
:1030D00015F098FD524604460D465B46DDE90401B5
:1030E00015F0DAFBDDE9062315F08CFD22462B46B0
:1030F00015F0D2FB5246804689465B4650465946FB
:1031000015F080FD0022624BCDE90C0115F0C4FBE7
:1031100042464B4615F0C0FB02980D460446224637
:103120002B465046594615F06DFD002282468B46CF
:10313000574B2046294615F0ADFBDDE90C2315F071
:10314000A9FB02460B464046494615F0A3FBDDE9C4
:10315000042315F057FD2246804689462B46DDE9BB
:10316000060115F04FFD02460B464046494615F054
:1031700093FB8046894602460B465046594615F059
:103180008BFB029838A3D3E9002304460D4615F0C3
:1031900039FD5246CDE904015B462046294615F02B
:1031A00079FB02460B464046494615F073FB30A3B7
:1031B000D3E9002315F026FD2FA3D3E90023804691
:1031C00089462046294615F01DFD02460B4640461D
:1031D000494615F061FBDDE9102315F05DFB8046E3
:1031E0000B98894615F0A4FC424682468B464B4616
:1031F000DDE9040115F050FBDDE9082315F04CFB77
:1032000052465B4615F048FB029852465B46044620
:103210000D4615F03FFBDDE9082315F03BFBDDE92A
:10322000042337E0AFF3008000000000000000003E
:10323000000000000000F03FEF4E454A287ECA3FE4
:1032400065DBC9934A86CD3F01411DA96074D13F1A
:103250004D268F515555D53FFFAB6FDBB66DDB3F2C
:10326000033333333333E33F000000E009C7EE3F5D
:10327000FD033ADC09C7EE3FF5015B14E02F3EBECB
:10328000000040438E98030079B60B000000F03F29
:103290000000084015F0FEFA0B460246494640463B
:1032A00015F0F8FA013E56EA070382468B4600F015
:1032B0005E819FEDD37B8DED047BDDE90012002361
:1032C0000E461746CDE902670293DDE9026708461C
:1032D0003B461146324615F0DDFA22462B4615F0E4
:1032E00091FCDDE90023804689465046594615F099
:1032F00089FC02460B464046494615F0CDFA324657
:10330000804689463B4620462946CDE9008915F08E
:1033100079FC0B46024606460F464046494615F0E4
:10332000BBFAD14B994204460D468A4640F32481AC
:1033300001F13F4303F5E003034340F0FF81B2A3F3
:10334000D3E90023DDE9000115F0A6FA32468046F4
:1033500089463B462046294615F09CFA02460B4614
:103360004046494615F0DEFE002840F0E781A846B9
:103370004FEA2853A3F2FE324FF480131341534413
:10338000C3F30A52B94DA2F2FF321541C3F313043D
:1033900023EA05010020C2F1140B44F48014BAF1B1
:1033A000000F02460B4644FA0BFB30463946B8BFC5
:1033B000CBF1000B15F06EFA06460F463246DDE9FA
:1033C00000013B4615F068FA4FEA0B5A0D460024FF
:1033D0008FA3D3E900232046294615F013FC32467B
:1033E000804689463B462046294615F053FA024658
:1033F0000B46DDE9000115F04DFA87A3D3E9002360
:1034000015F000FC86A3D3E9002306460F462046AC
:10341000294615F0F7FB02460B463046394615F0B3
:103420003BFA06460F4602460B464046494615F013
:1034300033FA42464B4604460D4615F02BFA024637
:103440000B463046394615F025FA22468046894615
:103450002B462046294615F0D5FB73A3D3E900235C
:1034600006460F4615F0CEFB71A3D3E9002315F0F5
:1034700011FA32463B4615F0C5FB6FA3D3E9002392
:1034800015F00AFA32463B4615F0BCFB6CA3D3E9B3
:10349000002315F0FFF932463B4615F0B3FB6AA353
:1034A000D3E9002315F0F8F932463B4615F0AAFBA4
:1034B00002460B462046294615F0ECF906460F4613
:1034C00002460B462046294615F09CFB0022CDE91A
:1034D00000014FF080433046394615F0DBF90246D3
:1034E0000B46DDE9000115F0B7FC424606460F46E3
:1034F0004B462046294615F085FB42464B4615F0C3
:10350000CBF902460B463046394615F0C3F9224640
:103510002B4615F0BFF902460B460020544915F022
:10352000B9F98A44BAF5801FC0F232815146DDE90B
:10353000042315F067FB23E4002FFFF645AC40465B
:10354000494613B0BDE8F04F14F078B9BBF1000F55
:10355000BFF6CFACDDE90034184604F100410FE4BA
:1035600042464B460020424915F076FC08E49FEDA8
:10357000387B8DED047BA0E63E4B21F0004898455A
:1035800040F3EA803C4B0B4403430AD132463B46AE
:1035900015F080F9DDE9002315F0BAFD00283FF4AD
:1035A000E7AEDDE904012CA3D3E9002315F02AFBE3
:1035B00029A3D3E9002315F025FBFFF7E1BBBCF1FC
:1035C000000F40F0D280C3F1140345FA03F202FA6F
:1035D00003F3AB4200F0E0806646FFF7E9BB9FEDE6
:1035E000207B8DED087B8DED107B9FED057B00250D
:1035F0008DED067BC8E44FF0000CA2E4AFF3008031
:10360000000000000000F03FFE822B654715973C4C
:1036100000000000432EE63FEF39FAFE422EE63F5F
:10362000396CA80C615C20BED0A4BE726937663EBE
:10363000F16BD2C541BDBB3E2CDE25AF6A56113FB2
:1036400093BDBE166CC1663F3E5555555555C53F99
:10365000000000000000F0BF59F3F8C21F6EA50182
:103660000000000000000000FFFF8F40FFFF0F0080
:103670000000F03FFFCB904000346F3F5A4B9C421C
:103680007FF734AC594B9C423FF7BDAB0022574B00
:1036900015F000F944A3D3E9002304460D4615F0C4
:1036A000B1FA43A3D3E9002382468B46204629463C
:1036B00015F0A8FA0022CDE902014D4B204629461B
:1036C00015F0A0FA02460B463BA1D1E9000115F026
:1036D000E1F822462B4615F095FA02460B460020EB
:1036E000444915F0D7F82246804689462B462046A5
:1036F000294615F087FA02460B464046494615F022
:1037000081FA2FA3D3E9002315F07CFA02460B4679
:10371000DDE9020115F0BEF802460B4680468946F7
:103720005046594615F0B8F8002004460D4652465A
:103730005B46AFE502460B46FFF7CFBBDDE9040170
:1037400021A3D3E9002315F05DFA1FA3D3E90023D9
:1037500015F058FAFFF714BB264B98453FF708AE13
:10376000DDE902239246934631E60026FFF72CBBA3
:103770009FED177B8DED087B9FED177B8DED107B0B
:103780009FED177B4FF480258DED067BFFF7FCBB8B
:103790005A4601F029FDCAE602F00102C2F1020612
:1037A000FFF706BBAFF30080000000604715F73F4E
:1037B00044DF5DF80BAE543E555555555555D53F34
:1037C000FE822B654715F73F9C7500883CE4377EE9
:1037D0000000004003B8E23F06D0CF43EBFD4C3E73
:1037E000000000000000F83FFEFFEF3F0000F03F48
:1037F0000000D03F0000E03F2DE9F047CA4B21F028
:1038000000479F4290B08046894640F38F80C74B67
:103810009F420C46924626DC0029B9A3D3E9002337
:1038200040F38F8015F036F8C14B9F4204460D4699
:1038300000F04781B4A3D3E9002315F02BF802462A
:103840000B46CAE900232046294615F023F8AEA30B
:10385000D3E9002315F01EF80125CAE90201284624
:1038600010B0BDE8F087B34B9F4240F38980B24B64
:103870009F4200F31C813D15A5F21645A7EB0553A9
:1038800019461F46064615F06DFC15F051F98046A5
:10389000894642464B4630463946CDE90A8914F0FE
:1038A000F9FF0022A54B15F0ADF98946804615F0C9
:1038B00059FC15F03DF906460F4632463B46404658
:1038C0004946CDE90C6714F0E5FF00229B4B15F04B
:1038D00099F900220023CDE90E0115F0FBFB002829
:1038E00000F06081002330463946002215F0F2FBDB
:1038F000002814BF01230223914A019202212A4683
:1039000000910AA8514600F087FB002C054614DA06
:10391000DAF80420DAF80C3002F1004203F1004337
:103920004542CAF80420CAF80C3006E00020002105
:10393000C2E90089C2E902010025284610B0BDE8AD
:10394000F08714F0A9FF7A4B9F4204460D4600F021
:103950000B816DA3D3E9002314F09EFF02460B46B2
:10396000CAE900232946204614F094FF66A3D3E950
:10397000002314F091FF4FF0FF35CAE90201DCE7A4
:1039800013F0C0F862A3D3E900238046894615F0FE
:1039900039F900226B4B14F07FFF15F0E3FB05466D
:1039A00015F0C6F856A3D3E90023CDE9060115F0BA
:1039B00029F902460B464046494614F06BFF52A3D4
:1039C000D3E9002380468946DDE90601CDE9028975
:1039D00015F018F91F2D02460B46CDE9042340F3DC
:1039E000B380DDE90423DDE9020114F053FF8046D2
:1039F00089463F15C9F30A53FB1A102B40F3B180D7
:103A000045A3D3E90023DDE9060115F0FBF8804664
:103A1000894602460B46DDE9020114F03BFF0246EF
:103A20000B46DDE90201CDE9082314F033FF4246DD
:103A30004B4614F02FFF3AA3D3E900238046894672
:103A4000DDE9060115F0DEF842464B4614F022FF90
:103A50000B46CDE904010246DDE9080114F01AFF26
:103A6000C1F30A53FF1A312F8046894600F39C8028
:103A70009DED087BCAE900898DED027B42464B46ED
:103A8000DDE9020114F006FFDDE9042314F002FF72
:103A9000002CCAE90201BFF650AF09F1004401F160
:103AA00000436D42CAE90084CAE9020345E70246C1
:103AB0000B4614F0EFFE0025CAE90201CAE9000135
:103AC0003BE715A3D3E9002314F0E4FE14A3D3E9E4
:103AD00000230D46044614F0DDFE02460B46CAE9FB
:103AE00000232946204614F0D5FE0DA3D3E9002378
:103AF00014F0D0FE0125CAE902011EE7AFF30080F1
:103B000000004054FB21F93F3163621A61B4D03D9B
:103B100083C8C96D305FE43F0000601A61B4D03DD6
:103B20007370032E8A19A33BFB21E93F7BD9024026
:103B3000FB21F93FFB213941FFFFEF7F000070417E
:103B400088B101000000E03F4046494614F0A2FE63
:103B5000394B6A1E804653F82230BB4289463FF4F7
:103B600048AFCAE9008989E72BA3D3E9002314F001
:103B700093FE2BA3D3E900230D46044614F08CFEDC
:103B800002460B46CAE900232946204614F082FE6D
:103B900023A3D3E9002314F07FFE4FF0FF35CAE9D9
:103BA0000201CAE60323A7E61FA3D3E90023DDE948
:103BB000060115F027F806460F4602460B46DDE9DA
:103BC000080114F067FE8046894602460B46DDE98F
:103BD0000801CDE9028914F05DFE32463B4614F03F
:103BE00059FE13A3D3E9002306460F46DDE906017B
:103BF00015F008F832463B4614F04CFE02460B46E0
:103C000040464946CDE9042314F044FE80468946E7
:103C1000A7E700BFAFF300800000601A61B4D03D99
:103C20007370032E8A19A33B0000002E8A19A33B50
:103C3000C14920259A837B3908B1010000000000AA
:103C4000574A2DE9F84F21F00048904506460F46A7
:103C50002CDC544B0029B4BF534D544D98454FF0C4
:103C6000000411DC524B984526DC4BA3D3E900231A
:103C700014F012FE00224F4B15F054FA002840D0E9
:103C800030463946BDE8F88F4B4B984530DD4B4BFD
:103C9000984568DD0133984562D0304639463EA3E9
:103CA000D3E9002314F0AEFFBDE8F88F02460B46BF
:103CB00014F0F2FDBDE8F88F12F024FF01F048F88F
:103CC0003F4B984506460F4623DD0022394B14F042
:103CD000E3FD02460B463046394615F0BDF8324644
:103CE0003B4614F0D9FD22462B4614F08BFFE1E74A
:103CF00012F008FFFEF75CFC22462B4614F082FF10
:103D0000D8E73046394612F0FDFE01F021F80646AC
:103D10000F4632463B463046394614F0BDFD32462A
:103D200082468B463B463046394614F06BFF0022F4
:103D3000804689461F4B3046394614F0ADFD024699
:103D40000B464046494615F087F802460B4650465A
:103D5000594614F09FFD22462B4614F053FFA9E765
:103D6000184B984299D83046394612F0CBFE0022C3
:103D70000E4B14F047FFFEF71BFC06460F460246AB
:103D80000B462046294614F03DFF32463B4614F0D0
:103D900039FF8FE7AFF300803374AC3C1F7BAC7FFF
:103DA000FFFFEF7FFFFF35400000E0BF0000E03F76
:103DB000FFFF2F3E0000F03F412E8640CD3386406E
:103DC000FFFFEF3F7DF8B98F2DE9F04F21F000485C
:103DD000B8F1795F85B006460F4692469B466BDA8E
:103DE00015F0C0F9002800F0E18032463B4630462D
:103DF000394614F007FF74A3D3E9002304460D46A7
:103E000014F000FF72A3D3E9002314F045FD22460D
:103E10002B4614F0F7FE70A3D3E9002314F03AFD0B
:103E200022462B4614F0EEFE6DA3D3E9002314F0D6
:103E300033FD22462B4614F0E5FE6BA3D3E90023A5
:103E400014F028FD22462B4614F0DCFE68A3D3E9CB
:103E5000002314F021FD22462B4614F0D3FECDE9B9
:103E600000010022664B2046294614F0CBFEDDE916
:103E70000023804689462046294614F0C3FE524658
:103E800004460D465B463046394614F0BBFE0246FA
:103E90000B462046294614F0FDFC02460B464046E0
:103EA000494614F0F7FC02460B460020554914F031
:103EB000F1FC05B0BDE8F08F02460B4614F0A2FEFF
:103EC00041A3D3E9002304460D4614F09BFE40A312
:103ED000D3E9002314F0E0FC22462B4614F092FEB6
:103EE0003DA3D3E9002314F0D5FC22462B4614F061
:103EF00089FE3BA3D3E9002314F0CEFC22462B46D7
:103F000014F080FE38A3D3E9002314F0C3FC22464A
:103F10002B4614F077FE36A3D3E9002314F0BCFC43
:103F20002B46224614F06EFE374B9845CDE9000132
:103F300097DD364B98453EDCA8F5001300220020A3
:103F400030499046994614F0A5FCCDE902010022C3
:103F50002B4B2046294614F055FE42464B4614F0A2
:103F600099FCDDE90023804689462046294614F065
:103F700049FE524604460D465B463046394614F02B
:103F800041FE02460B462046294614F083FC0246B9
:103F90000B464046494614F07DFC02460B46DDE9DF
:103FA000020114F077FC05B0BDE8F08F1549002040
:103FB00005B0BDE8F08F9FED107B4FF000088DED50
:103FC000027BDFF84C90C2E7D43888BEE9FAA8BD7E
:103FD000C4B1B4BD9EEE213EAD529C804F7E923E58
:103FE0009015CB19A001FA3E7751C1166CC1563F0E
:103FF0004C5555555555A53F000000000000E73FC2
:104000000000E03F0000F03F3233D33F0000E93FC3
:104010000000D23F000000002DE9F04FADF5197D02
:10402000BE4CA29EBE4D54F826600793D41E85FB5D
:104030000475E417C4EBA50424EAE4741D46631C6C
:10404000A3EB8303013D02EBC303059373190496AD
:104050000994019503900B91A4EB05071AD43B44F6
:10406000002400255E1C0DF18008DDF88C9208E02C
:1040700059F8270014F05CFD0137B742E8E8020167
:1040800008D0002FF4DA013720462946B742E8E885
:104090000201F6D1049B002B079B4FEAC303029356
:1040A0002ADB039A20A902EB030801EB0309049B16
:1040B00072AA02EBC30B0DF5E07A019B002B4FF0C7
:1040C00000064FF0000711DB039C4D4675E9022303
:1040D000F4E8020114F096FD02460B4630463946DC
:1040E00014F0DAFB444506460F46EFD1EAE80267D2
:1040F000DA4509F10809E0D1DDE902040499204418
:104100008B0082460BA8A3F10802C31808930CABDE
:1041100013440A938B4698AB03EBCB03BBF1000F20
:1041200053E9284529DD70AB03EBCB080DF13009CD
:1041300000227C4B2046294614F064FD15F012F84D
:1041400014F0F6FC0022784B06460F4614F05AFD98
:1041500002460B462046294614F09CFB15F002F857
:1041600078E9022349F8040B3946304614F094FBF1
:1041700070AB984504460D46DAD1DDF81490204620
:1041800029464A4601F030F800224FF07F5304469A
:104190000D4614F037FDFCF7A7FD0022634B14F029
:1041A00031FD02460B462046294614F073FB0D46AE
:1041B000044614F0D7FF804614F0BAFC0B460246C2
:1041C0002946204614F066FB4B46002B06460F4658
:1041D00040F3E1800BF1FF320CA9C9F1180351F84B
:1041E000225045FA03F101FA03F30CA8EB1A40F848
:1041F0002230C9F11705884443FA05F5002D2CDD5E
:10420000BBF1000F08F1010840F381820C9C002CE7
:1042100040F0A780BBF1010F0AD00CA9012251F890
:10422000044F531C002C40F09E809B451A46F6D14B
:10423000059B002B0EDD012B00F0D980022B09D14C
:104240000BF1FF320CAB0CA953F82230C3F315036A
:1042500041F82230022D00F0AF80002200233046CA
:10426000394614F037FF002800F05382049B0BF10D
:10427000FF394B4510DC0BF180430CAA013B089839
:1042800002EB8303002253F80419834242EA01023D
:10429000F9D1002A40F0B680049B0CAA013B52F8E9
:1042A0002330002B40F0A1800A9A012352F8041910
:1042B00001330029FAD05B440BF1010999450693BB
:1042C0004CDC099A079909EB020801EB0B0508F190
:1042D000804802EB030BA39B08F1FF3803EB88082F
:1042E00070AB03EBC909A39B20A903EB8B0301EB84
:1042F000C505029358F8040F14F01AFC0B460199F7
:104300000246002905F1080BC5E900234FF000061D
:104310004FF000071CDB039C0CE000BF28B6010037
:10432000ABAAAA2A0000703E0000704100002040A5
:1043300075E90223F4E8020114F064FC02460B461E
:104340003046394614F0A8FA544506460F46EFD1D8
:10435000029B9845E9E802675D46CBD1DDF818B0CD
:10436000D9E6012300220CA9C4F180749B4541F8D1
:1043700022400EDD51F8232001EB8B0001EB83037B
:104380006FF07F4100E01A688A1A43F8042B8342D9
:10439000F9D101244CE706D10BF1FF330CAA52F8F6
:1043A0002350ED152AE700227B4B14F0B1FE0028C4
:1043B00040F0A381054650E732463B46002077494E
:1043C00014F068FA06460F46002C3FF446AF059AF3
:1043D0007249002000F008FF02460B46304639467D
:1043E00014F058FA06460F4637E7012363E70BF14E
:1043F000FF320CAB0CA953F82230C3F3160341F87B
:10440000223027E70CAB059A53F82930183ACDE94A
:10441000068505926BB909F18043013B0CA901EBBC
:10442000830353F8041909F1FF39183A0029F8D029
:104430000592059A5949002000F0D6FEB9F1000F07
:1044400004460D46C0F2C0814FEAC90370AA02EBD0
:10445000030808930CAB03EB8906DFF844B14FF077
:10446000000A08F10807043656F8040D14F060FB42
:1044700022462B4614F0C6FB5B4667E90201524612
:104480002046294614F0BEFB0CAB9E4204460D4666
:10449000EAD148AB03930193CDF8149009F10103DD
:1044A000DDF810900293C3464FF0000AB9F1000FF7
:1044B000C0F22A81DFF8EC805D4635A3D3E9002302
:1044C00000260027002403E0544510DCF8E802230E
:1044D000F5E8020114F096FB02460B4630463946D9
:1044E00014F0DAF90134A14506460F46ECDA019BD7
:1044F000E3E802670193029B0AF1010A9A45ABF1D6
:10450000080BD3D1A29BDDF81490032B39D8DFE838
:1045100013F0D900060006004D0048AB0393B9F133
:10452000000F4FF000004FF0000109DB039D05EB89
:10453000C904083474E9022314F0AEF9A542F9D194
:10454000079B002B40F01E810B9BC3E900010B462B
:1045500003990246D1E9000114F09CF9B9F1000F6A
:104560000CDD4AAD01240134F5E8022314F094F97E
:10457000A145F8DA079B002B40F014810B9BC3E99F
:104580000201069B03F007000DF5197DBDE8F08FD1
:1045900000000040FB21F93F0000E03F0000F03F39
:1045A0000000703EC89E010048AB0393B9F1000FB4
:1045B00040F32781039ACDF810904FEAC903019385
:1045C000D318D3E900AB09F10053013B02EBC90852
:1045D0000293914678E9026752465B463046394677
:1045E00014F05AF904460D4602460B463046394649
:1045F00014F050F952465B4614F04EF9C145A246FC
:10460000AB46C8E90201C8E90045E3D1DDF81090E6
:10461000B9F1010F40F3F580019B039A029913440D
:10462000C900D3E9006701F1080A019192440DF530
:10463000947B7AE9028932463B464046494614F06B
:104640002BF904460D4602460B464046494614F0F7
:1046500021F932463B4614F01FF9D34526462F4632
:10466000CAE90201CAE90045E3D1019C039B103469
:10467000002000211C4403F1100574E9022314F00A
:104680000BF9A542F9D1039C079ED4E90023D4E994
:104690000245002E00F08A8003F1004701F100433B
:1046A0000B99C1E90403069B2646944605F1004494
:1046B00003F00700C1E900C7C1E902640DF5197DE7
:1046C000BDE8F08F089C039D0834002000212C4495
:1046D00074E9022314F0E0F8A542F9D1079B13B165
:1046E00001F1004319460B9BC3E90001069B03F04F
:1046F00007000DF5197DBDE8F08FBBF1000F08F143
:10470000010874DD022581E500260027EFE600247C
:104710008EE5CDE90685059D304639466A4200F0B2
:1047200063FD0022384B06460F4614F0F1FC00B33F
:104730000022364B3046394614F064FA14F012FD6C
:10474000044614F0F5F900222F4B14F05BFA0B46E7
:1047500002463946304614F09DF814F003FD0BF183
:1047600001090CAB183543F82B00059543F8294097
:104770005FE63046394614F0F5FC0CABD94643F8F9
:104780002B0056E60B9C01F10043C4E900030B46E5
:1047900003990246D1E9000114F07CF8B9F1000F49
:1047A0003FF7DFAE01F100431946E7E60B9EC6E98D
:1047B0000023069BC6E9040103F00700C6E9024591
:1047C0000DF5197DBDE8F08FA29B032B3FF6D9AE06
:1047D00001A252F823F000BFE94700001B4500008A
:1047E0001B450000A94500000020002176E7324665
:1047F0003B460020064914F04DF8022506460F46B8
:104800002BE5002000213EE7000070410000703ED3
:104810000000F03F000000002DE9F04F21F00046BD
:10482000B6F1795F85B004460D469046994604DAA4
:1048300014F098FC002800F0858022462B46204684
:10484000294614F0DFF906460F4602460B4620467D
:10485000294614F0D7F941A3D3E9002382468B46B9
:104860003046394614F0CEF93EA3D3E9002314F0C4
:1048700011F832463B4614F0C5F93CA3D3E90023B6
:1048800014F00AF832463B4614F0BCF939A3D3E9D8
:10489000002313F0FFFF32463B4614F0B3F937A371
:1048A000D3E9002313F0F8FF0E9BCDE900019BB381
:1048B0000022294B4046494614F0A4F9DDE90023C3
:1048C000CDE902015046594614F09CF902460B46C8
:1048D000DDE9020113F0DEFF32463B4614F092F9A7
:1048E00042464B4613F0D6FF19A3D3E900230646F0
:1048F0000F465046594614F085F902460B4630469D
:10490000394613F0C9FF02460B462046294613F0EC
:10491000C1FF05B0BDE8F08F02460B463046394670
:1049200014F070F90AA3D3E9002313F0B3FF524641
:104930005B4614F067F922462B4613F0ADFF05B035
:10494000BDE8F08F2046294605B0BDE8F08F00BFD6
:10495000495555555555C53F0000E03F7CD5CF5AC8
:104960003AD9E53DEB9C2B8AE6E55A3E7DFEB157F0
:10497000E31DC73ED561C119A0012A3FA6F8101159
:104980001111813F000000002DE9F04FC04C21F0D3
:10499000004687B0A64282468B460F46CDE90023EB
:1049A0001ADC14F0DFFB00283FD1109B5246013384
:1049B0001343334300F0B781109B012B00F0C081FB
:1049C0005B460020B34914F047FA04460D462046E2
:1049D000294607B0BDE8F08FAF4B9E4225DD002988
:1049E00009DADDE90045224605F10043CDE900235F
:1049F0000BF100418B4652465B4685A1D1E900018F
:104A000013F048FFDDE9002304460D4682A1D1E9F9
:104A1000000113F03FFF9FED827B22462B468DED78
:104A2000007B13F039FF82468B4652465B46504668
:104A3000594614F0E7F802460B468046894614F0C2
:104A4000E1F8424604460D464B465046594614F09E
:104A5000D9F875A3D3E90023CDE902012046294600
:104A600014F0D0F872A3D3E9002313F015FF224607
:104A70002B4614F0C7F870A3D3E9002313F00CFF02
:104A800022462B4614F0BEF86DA3D3E9002313F0A1
:104A900003FF22462B4614F0B5F86BA3D3E900239D
:104AA00013F0FAFE22462B4614F0ACF868A3D3E9C3
:104AB000002313F0F1FE42464B4614F0A3F866A320
:104AC000D3E90023CDE904012046294614F09AF8E1
:104AD00063A3D3E9002313F0DFFE22462B4614F034
:104AE00091F861A3D3E9002313F0D6FE22462B46AA
:104AF00014F088F85EA3D3E9002313F0CDFE22461C
:104B00002B4614F07FF85CA3D3E9002313F0C4FE16
:104B100022462B4614F076F859A3D3E9002313F06C
:104B2000BBFE02460B46DDE9040113F0B5FEDDE9EC
:104B3000022314F067F8DDE9004522462B4613F006
:104B4000ABFE42464B4614F05DF822462B4613F06E
:104B5000A3FE4DA3D3E9002304460D46DDE902017F
:104B600014F050F822462B4613F096FE0B460246F0
:104B7000804689465046594613F08EFE464B9E426B
:104B800004460D4600F38C80109B012B3BD002465F
:104B90000B4600203F4914F05FF9002406460F46FB
:104BA0002046294652465B46CDE90067CDE9020121
:104BB000009413F06FFEDDE900AB02460B46404661
:104BC000494613F067FE52465B4614F01BF8524606
:104BD00004460D465B46DDE9020114F013F800229D
:104BE0002E4B13F059FE02460B462046294613F081
:104BF00053FE32463B4614F005F852465B4613F02E
:104C00004BFE04460D462046294607B0BDE8F08F0E
:104C1000182D4454FB21E93F075C143326A6813C40
:104C20000000000000000000D47ABF74702AFB3E30
:104C3000E9A7F0320FB8123F68108D1AF726303FFF
:104C40001583E0FEC8DB573F93846EE9E326823F7D
:104C5000FE41B31BBAA1AB3F735360DBCB75F3BE10
:104C6000A69237A0887E143F0165F2F2D844433FF4
:104C7000280356C9226D6D3F37D60684F464963FEB
:104C80007AFE10111111C13F635555555555D53F49
:104C9000FFFF2F3E0000F0BF2794E53F0000F03FEC
:104CA000109813F045FF2246CDE900012B4620461F
:104CB000294613F0A7FFDDE90023CDE902012046D4
:104CC000294613F0E9FD02460B46DDE9020114F026
:104CD000C3F842464B4613F0DDFD02460B465046F4
:104CE000594613F0D7FD02460B4613F0D5FD024698
:104CF0000B46DDE9000113F0CDFD0446B81700F0C6
:104D00000200C0F101000D4613F012FF02460B46EF
:104D10002046294613F076FF04460D4620462946D4
:104D200007B0BDE8F08F5046594611F0EBFE024641
:104D30000B460020044914F08FF804460D4662E744
:104D400054465D465FE700BF0000F03F00000000F2
:104D50002DE9F04FCC4A21F00043934285B08246C2
:104D60008B460C4620D9C94A934200F2D780002CCA
:104D700080F2A481ACA3D3E900235046594613F036
:104D80008BFD0022002314F0AFF9002840F0D18001
:104D9000A7A3D3E900235046594613F033FF024638
:104DA0000B460020BA4994E1BA4A934200F2E580EA
:104DB000B94A934240F22E81002301930022B74B5F
:104DC0005046594613F01EFF06460F4602460B4654
:104DD0005046594613F016FF97A3D3E90023044623
:104DE0000D4613F00FFF96A3D3E9002313F054FDF3
:104DF00022462B4613F006FF93A3D3E9002313F0BA
:104E000049FD22462B4613F0FDFE91A3D3E9002372
:104E100013F042FD22462B4613F0F4FE8EA3D3E995
:104E2000002313F037FD22462B4613F0EBFE002241
:104E30009B4B13F031FD8046894602460B463046B7
:104E4000394613F0DFFE02460B460020954913F069
:104E500021FD064602460B460F464046494613F0E2
:104E600019FD3246804689463B465046594613F066
:104E7000C9FE02460B4600208B4913F00BFD02468B
:104E80000B464046494613F0E7FF22462B4613F0F7
:104E9000B9FE019E02460B46002E4DD0DDE90267A9
:104EA00032463B4613F0F6FC52465B4613F0AAFE30
:104EB00032463B4613F0EEFC2B46224613F0EAFC4A
:104EC000019B013306460F4600F02381019B012B15
:104ED0007BD0019A531C392B4FEA025500F22881EE
:104EE000019A132A40F35581019BC3F57F74033463
:104EF0000022230513F0D0FC02460B4650465946CB
:104F000013F0C8FC0022664B13F0C6FC824605EB8A
:104F1000010B5046594605B0BDE8F08F634A9342F5
:104F20001BD9C1F313030343024640F01281002949
:104F3000EFDA00205E490DE05046594613F062FE5C
:104F400022462B4613F0A6FC02460B465046594615
:104F500013F0A0FC05B0BDE8F08F41A3D3E9002316
:104F600014F0E0F800283FF402AF3FA3D3E9002398
:104F70001046194613F046FEECE74E4A934200F203
:104F8000EC8000293AA3D3E9002339DA13F084FC3A
:104F900039A7D7E900674FF0FF3380468946019370
:104FA00032463B464046494613F074FC02460B46E7
:104FB00082468B464046494613F06CFC32463B46DF
:104FC00013F068FCCDE90201F8E600223A4B5046A6
:104FD000594614F089F8002800F0CC805046594614
:104FE00000222E4B13F058FC02460B463046394641
:104FF00013F050FC00224FF0404313F003FEA9E7EA
:1050000013F048FC01238046894601931CA7D7E989
:105010000067C5E714A3D3E9002313F03DFC024663
:105020000B468FE7AFF3008059F3F8C21F6EA5015E
:10503000FE822B654715F73F2DC3096EB7FD8ABE6B
:105040003952E686CACFD03EB7DBAA9E19CE143FAE
:105050008555FE19A0015A3FF41011111111A13FFD
:10506000EF39FAFE422E86409C7500883CE4377E7C
:105070000000E0FE422EE63F763C7935EF39EABD8E
:10508000763C7935EF39EA3D79684340412E8640D8
:105090000000E0BF422ED63FFFFF8F3C0000E03F04
:1050A0000000F03F0000084000001840FFFFEF7FC5
:1050B0000000F0BFB1A2F03F0000D0BF44A3D3E98D
:1050C00000235046594613F09DFD02460B46002032
:1050D000414913F0E1FB14F045F8019013F028FD6D
:1050E00037A3D3E9002306460F4613F08BFD024693
:1050F0000B465046594613F0CDFB33A3D3E90023AA
:10510000804689463046394613F07CFD06460F46F8
:1051100046E702460B465046594613F0BBFB0022B9
:105120002D4B13F06FFD00222B4B13F0B3FB11E757
:1051300052465B4613F0AEFB02460B460020274961
:1051400013F0A8FB6B1819460022244B13F0A2FBA6
:1051500000E70B4613F0A0FBFCE61DA3D3E90023F8
:1051600013F050FD002C02460B464FF00000AFDA62
:105170001B49AEE732463B465046594613F08AFB80
:1051800002460B4613F088FB0022144B13F084FBFD
:10519000E0E64FF4001343FA02F452465B4613F084
:1051A00079FBC4F17F57002607F5401702460B46EE
:1051B0003046394613F06EFBA8E600BFAFF300801F
:1051C0000000E0FE422EE63F763C7935EF39EA3DBD
:1051D000FE822B654715F73F0000E03F0000F03FDF
:1051E0000000E0BF00000000F8B5C1F30A53044618
:1051F0000D460E4617460BBB21F0004603463343CF
:105200001BD0354B002213F0FDFC344B9F4204466B
:105210000D4635DBC1F30A530E46363B3B4440F2A4
:10522000FE72934232DC002B11DD26F0FF4626F49D
:10523000E00646EA035520462946F8BD40F2FF72D3
:105240009342EBD102460B4613F026FBF8BD13F157
:10525000350F28DA4CF250339F4222462B460ADDA6
:1052600019A1D1E9000113F087FA17A3D3E90023AC
:1052700013F0C8FCF8BD16A1D1E9000113F07CFAC7
:1052800013A3D3E9002313F0BDFCF8BD22462B463F
:105290000DA1D1E9000113F06FFA0BA3D3E90023AC
:1052A00013F0B0FCF8BD26F0FF4626F4E0063633D6
:1052B00046EA0355204629460022094B13F0A2FC7A
:1052C000F8BD00BFAFF300809C7500883CE4377EDA
:1052D00059F3F8C21F6EA50100005043B03CFFFF18
:1052E0000000903C10B5054C237833B9044B13B142
:1052F0000448AFF300800123237010BD1005002087
:105300000000000080B7010008B5034B1BB1034942
:105310000348AFF3008008BD000000001405002022
:1053200080B70100154B002B08BF134B9D46A3F51A
:10533000803A00218B460F461348144A121A08F08F
:1053400043FC0F4B002B00D098470E4B002B00D096
:1053500098470020002104000D000D48002802D0CD
:105360000C48AFF3008013F03DFA2000290005F04F
:10537000F3F813F023FA00BF000008000000022039
:10538000000000000000000000040020A00C00202D
:10539000000000000000000070B504460E4600F05A
:1053A00047FA88B103681B6B05469847082C0CD058
:1053B000A4F10903012B14D93246214610230D20F4
:1053C000BDE8704004F07AB870BD2B6828469B6A2F
:1053D00098470228F0DC2B6828465B6A042198472E
:1053E000EAE72B6828469B6A98470528E4DC2B6887
:1053F00028465B6A08219847DEE700BF38B52DEDE7
:10540000028B054600F014FA044640B103681B6B9A
:105410009847032D03D8DFE805F02F363D06BDEC95
:10542000028B002038BD20460BF0B8FF07EE900A33
:105430002046F8EEE78A0BF0BFFF07EE900A204601
:10544000B8EEE78A0BF0C6FF68EE087A07EE100A9E
:10545000E8EEA87AB8EEC77AE7EE077AF5EE407A7A
:10546000F1EE10FAB1EEE78A1BD4FDEEC87ABDEC7E
:10547000028B17EE900A38BDBDEC028B2046BDE8CA
:1054800038400BF08BBFBDEC028B2046BDE83840A6
:105490000BF092BFBDEC028B2046BDE838400BF00C
:1054A00099BF17EE900A12F063F8DEE738B50446AC
:1054B00000F0BEF958B103681B6B0546984744B12C
:1054C000012C04D12846BDE83840FBF73DB9002047
:1054D00038BD2846BDE83840FBF716B910B504467C
:1054E00000F0A6F928B1036821465B6ABDE81040C8
:1054F000184710BD0048704716FCFFFF704700BFFB
:1055000010B5034B036004460BF044FD204610BD6C
:1055100070AC010010B5054B036004460BF03AFD7A
:10552000204614F0A7F8204610BD00BF70AC010063
:105530002DE9F041032184B00546512001F0DAFC49
:10554000DFF8E8C2AE4B044604F00F06C4F30317BD
:1055500014F4807408BF6346AA4831463A460AF0FC
:10556000A3FE221C18BF012231463B4628460DF0FF
:10557000F3FE0023AB60A4480AF096FE4FF0FF3123
:10558000032001F0B7FCC0B204F08CFA4FF0FF31F9
:105590000446022001F0AEFCC0B204F083FA002CF5
:1055A0003BD0002839D00146204604F063F8064677
:1055B00000284DD04FF0FF31462001F09BFC3228EF
:1055C00004464ED04BDD382800F0B18068285FD10A
:1055D0004FF0FF31012001F08DFCC0B204F062FAFF
:1055E00080465C2014F04FF8052301934246009456
:1055F00031462B4607460CF0B1FEAF603B6838469B
:10560000DB6A9847A86803681B6B98477F480AF0D5
:105610004BFE284604B0BDE8F0817D480AF044FE08
:105620004FF0FF31192001F065FCC0B204F03AFAE6
:105630004FF0FF310446182001F05CFCC0B204F0CA
:1056400031FA0146204604F015F806460028B1D18B
:1056500070480AF029FE284604B0BDE8F0813028E1
:1056600016D14FF0FF31012001F044FCC0B204F02C
:1056700019FA8046502014F006F8A4B20746052314
:1056800001934246009431462B460CF011FCB4E7DE
:1056900001243268CDE900440023576AAB600F2231
:1056A0000DF10F0332213046B847002800F0858005
:1056B0003368CDE900440F225F6A30210DF10F03FA
:1056C0003046B84700284AD03368CDE900440D225F
:1056D0005F6A38210DF10F033046B847002872D0B9
:1056E0003268CDE900440DF10F03576A6821752235
:1056F0003046B847002845D1682147480AF0D4FD14
:105700004FF0FF31204601F0F5FBC0B204F0CAF9BA
:1057100080465C2013F0B7FF05246823CDE90034F0
:10572000424631462B4607460CF018FE65E74FF01F
:10573000FF31012001F0DEFBC0B204F0B3F9804676
:10574000502013F0A0FF05230746019342462B4645
:10575000009431460CF0E2FC304B3B604DE73021C9
:105760002D480AF0A1FD30244FF0FF31012001F057
:10577000C1FBC0B204F096F98046502013F083FFBD
:1057800007467CE726480AF08FFDAF68002F7FF4BC
:1057900035AF4FF0FF31032001F0ACFBC0B204F095
:1057A00081F930B11F480AF07FFD284604B0BDE8FA
:1057B000F0811D480AF078FD4DE7322116480AF0C5
:1057C00073FD3224D0E7382113480AF06DFD4FF005
:1057D000FF31204601F08EFBC0B204F063F9804631
:1057E000502013F050FF052438230746CDE900343C
:1057F00042462B4631460CF091FC084B3B60FCE6E0
:10580000509F0100609F0100809F010040A00100A7
:10581000909F0100A49F0100D09F0100189F0100EC
:10582000BC9F0100E49F010020A00100589F0100DF
:1058300038B5114C23680BB1986838BD4FF0FF3173
:10584000012001F057FBC0B204F02CF940B10C204C
:1058500013F019FF0546FFF76BFE2560A86838BDF9
:105860004FF0FF31032001F045FBC0B204F01AF9FC
:105870000028ECD138BD00BF2C05002008B501F090
:105880006BFCFBF7D5FCBDE8084001F0C5B900BFD3
:1058900008B501F061FCFBF73BFDBDE8084001F0F5
:1058A000BBB900BF08B501F057FC11F0A1F9BDE884
:1058B000084001F0B1B900BF08B501F04DFC11F08E
:1058C00093FDBDE8084001F0A7B900BF08B501F09D
:1058D00043FCFBF7BDFCBDE8084001F09DB900BFEB
:1058E00008B501F039FC11F0B5FBBDE8084001F046
:1058F00093B900BF08B501F02FFCFAF745FFBDE8EA
:10590000084001F089B900BF08B501F025FC11F08D
:10591000F7FABDE8084001F07FB900BF70B5049EFA
:1059200096420C4624DB15466BB9042A19D0022A8C
:1059300002D110F0010310D001462A46204606F09D
:10594000B1FF002070BD10440D4410F8013D01F876
:10595000013B8D42F9D1002070BD02880A801846B3
:1059600070BD10F00303E7D102680A60184670BDED
:105970000846002108F028F94FF0FF3070BD00BF45
:105980000830704740B1002905DB43688B4202DDD7
:105990000844007A70470020704700BF30B10029EA
:1059A00004DB43688B42C4BF40180272704700BFDB
:1059B00040B1002905DB4368994202DA0844007AC5
:1059C00070470020704700BF830704D1030F0CBF4E
:1059D0000120002070470120704700BF30B100292E
:1059E00004DB43689942BCBF40180272704700BF95
:1059F000F8B5002B20DB00291EDB46688E421BDB3E
:105A00005468761AE51AB542A8BF3546002D13DB57
:105A1000824202F108070C4600F108062A4605D02A
:105A2000F918301906F03EFF0020F8BDF1183819BA
:105A300013F050FE0020F8BD4FF0FF30F8BD00BF5E
:105A40004068704710B4141E10DB4268A2420DDBA0
:105A500033EA230328BF1346121B08309A4220441E
:105A6000A8BF1A465DF8044B08F0AEB85DF8044BC9
:105A7000704700BF10B443688B4200F10804184619
:105A8000A8BF084632EA220128BF19461B1A9942CC
:105A90002044A8BF19465DF8044B00F0B5BE00BF16
:105AA00070B5002BBCBF43689B1A002A0E4620DB52
:105AB00044689918A1421CDC91421ADBCBB136F044
:105AC000004116D05942B14214DAB34212DD083017
:105AD000002E00EB020515DB9C1B2246A919284667
